{
  "transactions": [
    {
      "hash": "0x8a5bd9a3aabdb9ff40bab1d63e12eaa6ba91fa2fc3c3f494437d549b86aa93c3",
      "transactionType": "CALL",
      "contractName": "LinkToken",
      "contractAddress": "0x779877a7b0d9e8603169ddbd7836e478b4624789",
      "function": "transferAndCall(address,uint256,bytes)",
      "arguments": [
        "0x9DdfaCa8183c41ad55329BdeeD9F6A8d53168B1B",
        "3000000000000000000",
        "0xd3d70ec9157979bf4fd5b7a35eda8bc0183f5b1c023b3971dc112868925e689c"
      ],
      "transaction": {
        "from": "0xf9b76f65f36b172d010b15fc9ec966dd3d23607d",
        "to": "0x779877a7b0d9e8603169ddbd7836e478b4624789",
        "gas": "0x14cbb",
        "value": "0x0",
        "input": "0x4000aea00000000000000000000000009ddfaca8183c41ad55329bdeed9f6a8d53168b1b00000000000000000000000000000000000000000000000029a2241af62c000000000000000000000000000000000000000000000000000000000000000000600000000000000000000000000000000000000000000000000000000000000020d3d70ec9157979bf4fd5b7a35eda8bc0183f5b1c023b3971dc112868925e689c",
        "nonce": "0xf",
        "chainId": "0xaa36a7"
      },
      "additionalContracts": [],
      "isFixedGasLimit": false
    }
  ],
  "receipts": [
    {
      "status": "0x1",
      "cumulativeGasUsed": "0x33085e",
      "logs": [
        {
          "address": "0x779877a7b0d9e8603169ddbd7836e478b4624789",
          "topics": [
            "0xddf252ad1be2c89b69c2b068fc378daa952ba7f163c4a11628f55a4df523b3ef",
            "0x000000000000000000000000f9b76f65f36b172d010b15fc9ec966dd3d23607d",
            "0x0000000000000000000000009ddfaca8183c41ad55329bdeed9f6a8d53168b1b"
          ],
          "data": "0x00000000000000000000000000000000000000000000000029a2241af62c0000",
          "blockHash": "0xb0bebcd2d7f133df12401b3069c81b126ccacb49e3cdcab0bd8563a032d2570f",
          "blockNumber": "0x6a1670",
          "transactionHash": "0x8a5bd9a3aabdb9ff40bab1d63e12eaa6ba91fa2fc3c3f494437d549b86aa93c3",
          "transactionIndex": "0x35",
          "logIndex": "0x36",
          "removed": false
        },
        {
          "address": "0x779877a7b0d9e8603169ddbd7836e478b4624789",
          "topics": [
            "0xe19260aff97b920c7df27010903aeb9c8d2be5d310a2c67824cf3f15396e4c16",
            "0x000000000000000000000000f9b76f65f36b172d010b15fc9ec966dd3d23607d",
            "0x0000000000000000000000009ddfaca8183c41ad55329bdeed9f6a8d53168b1b"
          ],
          "data": "0x00000000000000000000000000000000000000000000000029a2241af62c000000000000000000000000000000000000000000000000000000000000000000400000000000000000000000000000000000000000000000000000000000000020d3d70ec9157979bf4fd5b7a35eda8bc0183f5b1c023b3971dc112868925e689c",
          "blockHash": "0xb0bebcd2d7f133df12401b3069c81b126ccacb49e3cdcab0bd8563a032d2570f",
          "blockNumber": "0x6a1670",
          "transactionHash": "0x8a5bd9a3aabdb9ff40bab1d63e12eaa6ba91fa2fc3c3f494437d549b86aa93c3",
          "transactionIndex": "0x35",
          "logIndex": "0x37",
          "removed": false
        },
        {
          "address": "0x9ddfaca8183c41ad55329bdeed9f6a8d53168b1b",
          "topics": [
            "0x1ced9348ff549fceab2ac57cd3a9de38edaaab274b725ee82c23e8fc8c4eec7a",
            "0xd3d70ec9157979bf4fd5b7a35eda8bc0183f5b1c023b3971dc112868925e689c"
          ],
          "data": "0x000000000000000000000000000000000000000000000001158e460913d000000000000000000000000000000000000000000000000000013f306a2409fc0000",
          "blockHash": "0xb0bebcd2d7f133df12401b3069c81b126ccacb49e3cdcab0bd8563a032d2570f",
          "blockNumber": "0x6a1670",
          "transactionHash": "0x8a5bd9a3aabdb9ff40bab1d63e12eaa6ba91fa2fc3c3f494437d549b86aa93c3",
          "transactionIndex": "0x35",
          "logIndex": "0x38",
          "removed": false
        }
      ],
      "logsBloom": "0x00000004000000000000000000000000000000000020000000000000020000000000000000000000000000000000000000000000000000000000000000000000000000000000000000000008000000000000000000000000000020000020000008000000000000000000200000000000000000000000000000000010000040000000000000000004000000010000800000000020000000000000000000000000000000000000000000000100010000000000000000000000000004000000000000000002000000000000000000000000000000000000000100000000000000000010000000000000800000000100000000000000000000800000000000000000",
      "type": "0x2",
      "transactionHash": "0x8a5bd9a3aabdb9ff40bab1d63e12eaa6ba91fa2fc3c3f494437d549b86aa93c3",
      "transactionIndex": "0x35",
      "blockHash": "0xb0bebcd2d7f133df12401b3069c81b126ccacb49e3cdcab0bd8563a032d2570f",
      "blockNumber": "0x6a1670",
      "gasUsed": "0xf0e5",
      "effectiveGasPrice": "0x1285fb2e",
      "from": "0xf9b76f65f36b172d010b15fc9ec966dd3d23607d",
      "to": "0x779877a7b0d9e8603169ddbd7836e478b4624789",
      "contractAddress": null
    }
  ],
  "libraries": [],
  "pending": [],
  "returns": {},
  "timestamp": 1729985490,
  "chain": 11155111,
  "commit": "d3127c2"
}